S0120000496E74657272757074312E7372656314
S113000045C0000080C00000DEC0000047C0000002
S113001045C0000043C0000041C000003FC00000D4
S11300203DC000003BC0000039C0000037C00000E4
S113003035C0000033C0000031C000002FC00000F4
S11300402DC000002BC0000029C0000027C0000004
S113005025C0000023C0000021C000001FC0000014
S11300601DC000001BC0000019C0000017C0000024
S113007015C0000013C0000011C000000FC0000034
S11300800DC000000BC0000009C0000011241FBEF9
S1130090CFEFD0E1DEBFCDBF02D0F3C0B1CF7894B3
S11300A0E1E6F0E0808182608083E2E6F0E0808136
S11300B0826080838FEF8ABB8BB38BBB81B38C7FD1
S11300C081BB909A919A89B7816089BF89B7826010
S11300D089BFEAE6F0E0808180838FEF2FEF30E77D
S11300E092E0215030409040E1F700C000009BB303
S11300F08BBB2FEF30E792E0215030409040E1F786
S113010000C00000EBCF1F920F920FB60F92112484
S11301100BB60F922F933F934F935F936F937F93FD
S11301208F939F93AF93EF93FF938BB31BBA80E0AE
S113013090E061E070E02BB3AB01082E02C0440FE5
S1130140551F0A94E2F7242B2BBB5BB39C012E5F53
S11301503F4FFB0102C0EE0FFF1F2A95E2F79F01FC
S1130160352F322B3BBBFFEFA0E7E2E0F150A0407C
S1130170E040E1F700C000003BB3409543234BBB94
S11301803BB3209523232BBBFFEF20E732E0F15054
S113019020403040E1F700C0000001968630910510
S11301A051F6FF91EF91AF919F918F917F916F9154
S11301B05F914F913F912F910F900BBE0F900FBE07
S11301C00F901F9018951F920F920FB60F92112443
S11301D00BB60F922F933F934F935F936F937F933D
S11301E08F939F93AF93EF93FF938BB31BBA85E0E9
S11301F090E061E070E02BB3AB01082E02C0440F25
S1130200551F0A94E2F7242B2BBB5BB39C012E5F92
S11302103F4FFB0102C0EE0FFF1F2A95E2F79F013B
S1130220352F322B3BBBFFEFA0E7E2E0F150A040BB
S1130230E040E1F700C000003BB3409543234BBBD3
S11302403BB3209523232BBBFFEF20E732E0F15093
S113025020403040E1F700C00000019760F6FF91B4
S1130260EF91AF919F918F917F916F915F914F919A
S11302703F912F910F900BBE0F900FBE0F901F90C8
S10902801895F894FFCF6D
S9030000FC
