S01300005461736B315F54696D65722E73726563ED
S113000045C0000058C0000056C0000054C00000A5
S113001052C0000050C000004EC000004CC00000A0
S11300204AC0000048C0000046C0000044C00000B0
S113003042C0000040C000003EC0000091C000006B
S113004078C0000038C0000036C0000034C0000092
S113005032C0000030C000002EC000002CC00000E0
S11300602AC0000028C0000026C0000024C00000F0
S113007022C0000020C000001EC000001CC0000000
S11300801AC0000018C0000016C0000011241FBED2
S1130090CFEFD0E1DEBFCDBF11E0A0E0B1E0E2E9F7
S11300A0F1E000E00BBF02C007900D92A230B1074F
S11300B0D9F721D06CC0A4CF23B7276023BF23B7BF
S11300C0286023BF23B7206123BF2FEF21BF27B7A9
S11300D0226027BF2091000130910101232BD1F729
S11300E042E3489F9001499F300D11243093010150
S11300F02093000108957894E1E6F0E08081826025
S11301008083E2E6F0E08081826080838AB38FEFAF
S11301108ABB8BB38BBBBC9AC49ACFEF8BB3CBBBDC
S113012081E090E0C9DF8BB31BBA81E090E0C4DFCB
S1130130F5CF1F920F920FB60F9211248F939F93B6
S113014080910001909101010197909301018093A6
S113015000019F918F910F900FBE0F901F901895E3
S11301601F920F920FB60F9211248F939F93809139
S11301700001909101010197909301018093000186
S11301809F918F910F900FBE0F901F901895F89428
S1050190FFCF9B
S1050192320035
S9030000FC
